{
  "contractName": "Good",
  "abi": [
    {
      "inputs": [],
      "stateMutability": "nonpayable",
      "type": "constructor"
    },
    {
      "inputs": [],
      "name": "sayGood",
      "outputs": [
        {
          "internalType": "string",
          "name": "",
          "type": "string"
        }
      ],
      "stateMutability": "pure",
      "type": "function",
      "constant": true
    },
    {
      "inputs": [],
      "name": "sayBad",
      "outputs": [
        {
          "internalType": "string",
          "name": "",
          "type": "string"
        }
      ],
      "stateMutability": "pure",
      "type": "function",
      "constant": true
    }
  ],
  "bytecode": "0x608060405234801561001057600080fd5b5061020e806100206000396000f3fe608060405234801561001057600080fd5b5060043610610053576000357c01000000000000000000000000000000000000000000000000000000009004806387f763ca14610058578063cc4eb135146100db575b600080fd5b61006061015e565b6040518080602001828103825283818151815260200191508051906020019080838360005b838110156100a0578082015181840152602081019050610085565b50505050905090810190601f1680156100cd5780820380516001836020036101000a031916815260200191505b509250505060405180910390f35b6100e361019b565b6040518080602001828103825283818151815260200191508051906020019080838360005b83811015610123578082015181840152602081019050610108565b50505050905090810190601f1680156101505780820380516001836020036101000a031916815260200191505b509250505060405180910390f35b60606040518060400160405280600581526020017f476f6f6421000000000000000000000000000000000000000000000000000000815250905090565b60606040518060400160405280600481526020017f426164210000000000000000000000000000000000000000000000000000000081525090509056fea26469706673582212202d4ac2ea08970124397affed86d7a6fb34ecac395c7f66ced38f201d7445f5f264736f6c63430007000033",
  "immutableReferences": {},
  "source": "// SPDX-License-Identifier: GPL-3.0\r\npragma solidity >=0.7.0 <0.9.0;\r\n\r\ncontract Good {\r\n    constructor()public {\r\n\r\n    }\r\n\r\n    function sayGood() public pure returns (string memory) {\r\n        return \"Good!\";\r\n    }\r\n\r\n    function sayBad() public pure returns (string memory) {\r\n        return \"Bad!\";\r\n    }\r\n}",
  "sourcePath": "D:\\githubSoftware\\TruffleProj\\knn_for_solidity\\contracts\\Good.sol",
  "compiler": {
    "name": "solc",
    "version": "0.7.0+commit.9e61f92b.Emscripten.clang"
  },
  "schemaVersion": "3.3.1",
  "updatedAt": "2021-06-27T17:29:17.240Z",
  "networkType": "ethereum",
  "devdoc": {
    "kind": "dev",
    "methods": {},
    "version": 1
  },
  "userdoc": {
    "kind": "user",
    "methods": {},
    "version": 1
  }
}