{
  "contractName": "HelloWorld",
  "abi": [
    {
      "inputs": [],
      "stateMutability": "nonpayable",
      "type": "constructor"
    },
    {
      "inputs": [
        {
          "internalType": "uint256",
          "name": "",
          "type": "uint256"
        },
        {
          "internalType": "uint256",
          "name": "",
          "type": "uint256"
        }
      ],
      "name": "array",
      "outputs": [
        {
          "internalType": "uint32",
          "name": "",
          "type": "uint32"
        }
      ],
      "stateMutability": "view",
      "type": "function",
      "constant": true
    },
    {
      "inputs": [],
      "name": "sayHi",
      "outputs": [
        {
          "internalType": "string",
          "name": "",
          "type": "string"
        }
      ],
      "stateMutability": "pure",
      "type": "function",
      "constant": true
    },
    {
      "inputs": [],
      "name": "sayBye",
      "outputs": [
        {
          "internalType": "string",
          "name": "",
          "type": "string"
        }
      ],
      "stateMutability": "pure",
      "type": "function",
      "constant": true
    },
    {
      "inputs": [],
      "name": "sayGood",
      "outputs": [
        {
          "internalType": "string",
          "name": "",
          "type": "string"
        }
      ],
      "stateMutability": "view",
      "type": "function",
      "constant": true
    },
    {
      "inputs": [],
      "name": "sayBad",
      "outputs": [
        {
          "internalType": "string",
          "name": "",
          "type": "string"
        }
      ],
      "stateMutability": "view",
      "type": "function",
      "constant": true
    },
    {
      "inputs": [],
      "name": "getArrayLen",
      "outputs": [
        {
          "internalType": "uint256",
          "name": "",
          "type": "uint256"
        }
      ],
      "stateMutability": "view",
      "type": "function",
      "constant": true
    },
    {
      "inputs": [],
      "name": "getArray",
      "outputs": [
        {
          "internalType": "uint32[2][]",
          "name": "",
          "type": "uint32[2][]"
        }
      ],
      "stateMutability": "view",
      "type": "function",
      "constant": true
    }
  ],
  "bytecode": "0x608060405234801561001057600080fd5b5060405161001d906101c0565b604051809103906000f080158015610039573d6000803e3d6000fd5b506000806101000a81548173ffffffffffffffffffffffffffffffffffffffff021916908373ffffffffffffffffffffffffffffffffffffffff16021790555060016040518060400160405280600060ff168152602001600060ff16815250908060018154018082558091505060019003906000526020600020016000909190919091509060026100cb9291906101cd565b5060016040518060400160405280600060ff168152602001600060ff168152509080600181540180825580915050600190039060005260206000200160009091909190915090600261011e9291906101cd565b5060018060008154811061012e57fe5b9060005260206000200160016002811061014457fe5b600891828204019190066004026101000a81548163ffffffff021916908363ffffffff16021790555060026001808154811061017c57fe5b9060005260206000200160016002811061019257fe5b600891828204019190066004026101000a81548163ffffffff021916908363ffffffff160217905550610298565b61022e80610b0583390190565b82600260070160089004810192821561025c5791602002820160005b8382111561022a57835183826101000a81548163ffffffff021916908360ff16021790555092602001926004016020816003010492830192600103026101e9565b801561025a5782816101000a81549063ffffffff021916905560040160208160030104928301926001030261022a565b505b509050610269919061026d565b5090565b5b8082111561029457600081816101000a81549063ffffffff02191690555060010161026e565b5090565b61085e806102a76000396000f3fe608060405234801561001057600080fd5b506004361061009a576000357c010000000000000000000000000000000000000000000000000000000090048063baa7d1f711610078578063baa7d1f714610228578063cc4eb1351461027a578063d504ea1d146102fd578063ff6aa2cc1461037d5761009a565b80630c49c36c1461009f5780636f3a693f1461012257806387f763ca146101a5575b600080fd5b6100a761039b565b6040518080602001828103825283818151815260200191508051906020019080838360005b838110156100e75780820151818401526020810190506100cc565b50505050905090810190601f1680156101145780820380516001836020036101000a031916815260200191505b509250505060405180910390f35b61012a6103d8565b6040518080602001828103825283818151815260200191508051906020019080838360005b8381101561016a57808201518184015260208101905061014f565b50505050905090810190601f1680156101975780820380516001836020036101000a031916815260200191505b509250505060405180910390f35b6101ad610415565b6040518080602001828103825283818151815260200191508051906020019080838360005b838110156101ed5780820151818401526020810190506101d2565b50505050905090810190601f16801561021a5780820380516001836020036101000a031916815260200191505b509250505060405180910390f35b61025e6004803603604081101561023e57600080fd5b810190808035906020019092919080359060200190929190505050610597565b604051808263ffffffff16815260200191505060405180910390f35b6102826105dc565b6040518080602001828103825283818151815260200191508051906020019080838360005b838110156102c25780820151818401526020810190506102a7565b50505050905090810190601f1680156102ef5780820380516001836020036101000a031916815260200191505b509250505060405180910390f35b61030561075e565b60405180806020018281038252838181518152602001915080516000925b8184101561036c5782846020026020010151600260200280838360005b8381101561035b578082015181840152602081019050610340565b505050509050019260010192610323565b925050509250505060405180910390f35b610385610816565b6040518082815260200191505060405180910390f35b60606040518060400160405280600681526020017f48656c6c6f210000000000000000000000000000000000000000000000000000815250905090565b60606040518060400160405280600481526020017f4279652100000000000000000000000000000000000000000000000000000000815250905090565b606060008054906101000a900473ffffffffffffffffffffffffffffffffffffffff1673ffffffffffffffffffffffffffffffffffffffff166387f763ca6040518163ffffffff167c010000000000000000000000000000000000000000000000000000000002815260040160006040518083038186803b15801561049957600080fd5b505afa1580156104ad573d6000803e3d6000fd5b505050506040513d6000823e3d601f19601f8201168201806040525060208110156104d757600080fd5b81019080805160405193929190846401000000008211156104f757600080fd5b8382019150602082018581111561050d57600080fd5b825186600182028301116401000000008211171561052a57600080fd5b8083526020830192505050908051906020019080838360005b8381101561055e578082015181840152602081019050610543565b50505050905090810190601f16801561058b5780820380516001836020036101000a031916815260200191505b50604052505050905090565b600182815481106105a457fe5b9060005260206000200181600281106105b957fe5b60089182820401919006600402915091509054906101000a900463ffffffff1681565b606060008054906101000a900473ffffffffffffffffffffffffffffffffffffffff1673ffffffffffffffffffffffffffffffffffffffff1663cc4eb1356040518163ffffffff167c010000000000000000000000000000000000000000000000000000000002815260040160006040518083038186803b15801561066057600080fd5b505afa158015610674573d6000803e3d6000fd5b505050506040513d6000823e3d601f19601f82011682018060405250602081101561069e57600080fd5b81019080805160405193929190846401000000008211156106be57600080fd5b838201915060208201858111156106d457600080fd5b82518660018202830111640100000000821117156106f157600080fd5b8083526020830192505050908051906020019080838360005b8381101561072557808201518184015260208101905061070a565b50505050905090810190601f1680156107525780820380516001836020036101000a031916815260200191505b50604052505050905090565b60606001805480602002602001604051908101604052809291908181526020016000905b8282101561080d578382906000526020600020016002806020026040519081016040528092919082600280156107f9576020028201916000905b82829054906101000a900463ffffffff1663ffffffff16815260200190600401906020826003010492830192600103820291508084116107bc5790505b505050505081526020019060010190610782565b50505050905090565b6000806001805490509050809150509056fea2646970667358221220cd4f2e4838f9c9682e3165f99d7e2d59d42ef9c736fe716c244e02cfcf4e1cfe64736f6c63430007000033608060405234801561001057600080fd5b5061020e806100206000396000f3fe608060405234801561001057600080fd5b5060043610610053576000357c01000000000000000000000000000000000000000000000000000000009004806387f763ca14610058578063cc4eb135146100db575b600080fd5b61006061015e565b6040518080602001828103825283818151815260200191508051906020019080838360005b838110156100a0578082015181840152602081019050610085565b50505050905090810190601f1680156100cd5780820380516001836020036101000a031916815260200191505b509250505060405180910390f35b6100e361019b565b6040518080602001828103825283818151815260200191508051906020019080838360005b83811015610123578082015181840152602081019050610108565b50505050905090810190601f1680156101505780820380516001836020036101000a031916815260200191505b509250505060405180910390f35b60606040518060400160405280600581526020017f476f6f6421000000000000000000000000000000000000000000000000000000815250905090565b60606040518060400160405280600481526020017f426164210000000000000000000000000000000000000000000000000000000081525090509056fea26469706673582212201ebb71c1dec210cf90aacc6281f60be8d960e89d76991a658680894063cb078a64736f6c63430007000033",
  "immutableReferences": {},
  "source": "// SPDX-License-Identifier: GPL-3.0\npragma solidity >=0.7.0 <0.9.0;\nimport \"./Good.sol\";\n\ncontract HelloWorld {\n    Good gd;\n    uint32[2][] public array;\n\n    constructor() {\n        gd = new Good();\n        // array = new uint32[2][](0);\n        array.push([0,0]);\n        array.push([0,0]);\n        array[0][1] = 1;\n        array[1][1] = 2;\n    }\n\n    function sayHi() public pure returns (string memory) {\n        return \"Hello!\";\n    }\n\n    function sayBye() public pure returns (string memory) {\n        return \"Bye!\";\n    }\n\n    function sayGood() public view returns(string memory){\n        return gd.sayGood();\n    }\n\n    function sayBad() public view returns(string memory){\n        return gd.sayBad();\n    }\n\n    function getArrayLen() public view returns(uint256){\n        uint256 len = array.length;\n        return len;\n    }\n\n    function getArray()public view returns(uint32[2][]memory){\n        return array;\n    }\n}\n",
  "sourcePath": "/home/zxhu/github/knn_for_solidity/contracts/HelloWorld.sol",
  "compiler": {
    "name": "solc",
    "version": "0.7.0+commit.9e61f92b.Emscripten.clang"
  },
  "schemaVersion": "3.4.1",
  "updatedAt": "2021-06-30T03:36:59.075Z",
  "networkType": "ethereum",
  "devdoc": {
    "kind": "dev",
    "methods": {},
    "version": 1
  },
  "userdoc": {
    "kind": "user",
    "methods": {},
    "version": 1
  }
}