{
  "contractName": "HelloWorld",
  "abi": [
    {
      "inputs": [],
      "stateMutability": "nonpayable",
      "type": "constructor"
    },
    {
      "inputs": [
        {
          "internalType": "uint256",
          "name": "",
          "type": "uint256"
        },
        {
          "internalType": "uint256",
          "name": "",
          "type": "uint256"
        }
      ],
      "name": "array",
      "outputs": [
        {
          "internalType": "uint32",
          "name": "",
          "type": "uint32"
        }
      ],
      "stateMutability": "view",
      "type": "function",
      "constant": true
    },
    {
      "inputs": [],
      "name": "sayHi",
      "outputs": [
        {
          "internalType": "string",
          "name": "",
          "type": "string"
        }
      ],
      "stateMutability": "pure",
      "type": "function",
      "constant": true
    },
    {
      "inputs": [],
      "name": "sayBye",
      "outputs": [
        {
          "internalType": "string",
          "name": "",
          "type": "string"
        }
      ],
      "stateMutability": "pure",
      "type": "function",
      "constant": true
    },
    {
      "inputs": [],
      "name": "sayGood",
      "outputs": [
        {
          "internalType": "string",
          "name": "",
          "type": "string"
        }
      ],
      "stateMutability": "view",
      "type": "function",
      "constant": true
    },
    {
      "inputs": [],
      "name": "sayBad",
      "outputs": [
        {
          "internalType": "string",
          "name": "",
          "type": "string"
        }
      ],
      "stateMutability": "view",
      "type": "function",
      "constant": true
    },
    {
      "inputs": [],
      "name": "getArrayLen",
      "outputs": [
        {
          "internalType": "uint256",
          "name": "",
          "type": "uint256"
        }
      ],
      "stateMutability": "view",
      "type": "function",
      "constant": true
    },
    {
      "inputs": [],
      "name": "getArray",
      "outputs": [
        {
          "internalType": "uint32[2][]",
          "name": "",
          "type": "uint32[2][]"
        }
      ],
      "stateMutability": "view",
      "type": "function",
      "constant": true
    }
  ],
  "bytecode": "0x608060405234801561001057600080fd5b5060405161001d906101c0565b604051809103906000f080158015610039573d6000803e3d6000fd5b506000806101000a81548173ffffffffffffffffffffffffffffffffffffffff021916908373ffffffffffffffffffffffffffffffffffffffff16021790555060016040518060400160405280600060ff168152602001600060ff16815250908060018154018082558091505060019003906000526020600020016000909190919091509060026100cb9291906101cd565b5060016040518060400160405280600060ff168152602001600060ff168152509080600181540180825580915050600190039060005260206000200160009091909190915090600261011e9291906101cd565b5060018060008154811061012e57fe5b9060005260206000200160016002811061014457fe5b600891828204019190066004026101000a81548163ffffffff021916908363ffffffff16021790555060026001808154811061017c57fe5b9060005260206000200160016002811061019257fe5b600891828204019190066004026101000a81548163ffffffff021916908363ffffffff160217905550610298565b61021180610ab083390190565b82600260070160089004810192821561025c5791602002820160005b8382111561022a57835183826101000a81548163ffffffff021916908360ff16021790555092602001926004016020816003010492830192600103026101e9565b801561025a5782816101000a81549063ffffffff021916905560040160208160030104928301926001030261022a565b505b509050610269919061026d565b5090565b5b8082111561029457600081816101000a81549063ffffffff02191690555060010161026e565b5090565b610809806102a76000396000f3fe608060405234801561001057600080fd5b506004361061007d5760003560e01c8063baa7d1f71161005b578063baa7d1f71461020b578063cc4eb1351461025d578063d504ea1d146102e0578063ff6aa2cc146103605761007d565b80630c49c36c146100825780636f3a693f1461010557806387f763ca14610188575b600080fd5b61008a61037e565b6040518080602001828103825283818151815260200191508051906020019080838360005b838110156100ca5780820151818401526020810190506100af565b50505050905090810190601f1680156100f75780820380516001836020036101000a031916815260200191505b509250505060405180910390f35b61010d6103bb565b6040518080602001828103825283818151815260200191508051906020019080838360005b8381101561014d578082015181840152602081019050610132565b50505050905090810190601f16801561017a5780820380516001836020036101000a031916815260200191505b509250505060405180910390f35b6101906103f8565b6040518080602001828103825283818151815260200191508051906020019080838360005b838110156101d05780820151818401526020810190506101b5565b50505050905090810190601f1680156101fd5780820380516001836020036101000a031916815260200191505b509250505060405180910390f35b6102416004803603604081101561022157600080fd5b81019080803590602001909291908035906020019092919050505061055e565b604051808263ffffffff16815260200191505060405180910390f35b6102656105a3565b6040518080602001828103825283818151815260200191508051906020019080838360005b838110156102a557808201518184015260208101905061028a565b50505050905090810190601f1680156102d25780820380516001836020036101000a031916815260200191505b509250505060405180910390f35b6102e8610709565b60405180806020018281038252838181518152602001915080516000925b8184101561034f5782846020026020010151600260200280838360005b8381101561033e578082015181840152602081019050610323565b505050509050019260010192610306565b925050509250505060405180910390f35b6103686107c1565b6040518082815260200191505060405180910390f35b60606040518060400160405280600681526020017f48656c6c6f210000000000000000000000000000000000000000000000000000815250905090565b60606040518060400160405280600481526020017f4279652100000000000000000000000000000000000000000000000000000000815250905090565b606060008054906101000a900473ffffffffffffffffffffffffffffffffffffffff1673ffffffffffffffffffffffffffffffffffffffff166387f763ca6040518163ffffffff1660e01b815260040160006040518083038186803b15801561046057600080fd5b505afa158015610474573d6000803e3d6000fd5b505050506040513d6000823e3d601f19601f82011682018060405250602081101561049e57600080fd5b81019080805160405193929190846401000000008211156104be57600080fd5b838201915060208201858111156104d457600080fd5b82518660018202830111640100000000821117156104f157600080fd5b8083526020830192505050908051906020019080838360005b8381101561052557808201518184015260208101905061050a565b50505050905090810190601f1680156105525780820380516001836020036101000a031916815260200191505b50604052505050905090565b6001828154811061056b57fe5b90600052602060002001816002811061058057fe5b60089182820401919006600402915091509054906101000a900463ffffffff1681565b606060008054906101000a900473ffffffffffffffffffffffffffffffffffffffff1673ffffffffffffffffffffffffffffffffffffffff1663cc4eb1356040518163ffffffff1660e01b815260040160006040518083038186803b15801561060b57600080fd5b505afa15801561061f573d6000803e3d6000fd5b505050506040513d6000823e3d601f19601f82011682018060405250602081101561064957600080fd5b810190808051604051939291908464010000000082111561066957600080fd5b8382019150602082018581111561067f57600080fd5b825186600182028301116401000000008211171561069c57600080fd5b8083526020830192505050908051906020019080838360005b838110156106d05780820151818401526020810190506106b5565b50505050905090810190601f1680156106fd5780820380516001836020036101000a031916815260200191505b50604052505050905090565b60606001805480602002602001604051908101604052809291908181526020016000905b828210156107b8578382906000526020600020016002806020026040519081016040528092919082600280156107a4576020028201916000905b82829054906101000a900463ffffffff1663ffffffff16815260200190600401906020826003010492830192600103820291508084116107675790505b50505050508152602001906001019061072d565b50505050905090565b6000806001805490509050809150509056fea26469706673582212207ca4afe173e7c697a6b745b10504e07afb450e89aa7aa65c6270f7353d29dc0564736f6c63430007000033608060405234801561001057600080fd5b506101f1806100206000396000f3fe608060405234801561001057600080fd5b50600436106100365760003560e01c806387f763ca1461003b578063cc4eb135146100be575b600080fd5b610043610141565b6040518080602001828103825283818151815260200191508051906020019080838360005b83811015610083578082015181840152602081019050610068565b50505050905090810190601f1680156100b05780820380516001836020036101000a031916815260200191505b509250505060405180910390f35b6100c661017e565b6040518080602001828103825283818151815260200191508051906020019080838360005b838110156101065780820151818401526020810190506100eb565b50505050905090810190601f1680156101335780820380516001836020036101000a031916815260200191505b509250505060405180910390f35b60606040518060400160405280600581526020017f476f6f6421000000000000000000000000000000000000000000000000000000815250905090565b60606040518060400160405280600481526020017f426164210000000000000000000000000000000000000000000000000000000081525090509056fea264697066735822122024fe1bc85714d66d7eeadbf2e9cd05112f87602fca445e7a9ac390385a1d64c164736f6c63430007000033",
  "immutableReferences": {},
  "source": "// SPDX-License-Identifier: GPL-3.0\npragma solidity >=0.7.0 <0.9.0;\nimport \"./Good.sol\";\n\ncontract HelloWorld {\n    Good gd;\n    uint32[2][] public array;\n\n    constructor() public {\n        gd = new Good();\n        // array = new uint32[2][](0);\n        array.push([0,0]);\n        array.push([0,0]);\n        array[0][1] = 1;\n        array[1][1] = 2;\n    }\n\n    function sayHi() public pure returns (string memory) {\n        return \"Hello!\";\n    }\n\n    function sayBye() public pure returns (string memory) {\n        return \"Bye!\";\n    }\n\n    function sayGood() public view returns(string memory){\n        return gd.sayGood();\n    }\n\n    function sayBad() public view returns(string memory){\n        return gd.sayBad();\n    }\n\n    function getArrayLen() public view returns(uint256){\n        uint256 len = array.length;\n        return len;\n    }\n\n    function getArray()public view returns(uint32[2][]memory){\n        return array;\n    }\n}\n",
  "sourcePath": "D:/githubSoftware/TruffleProj/knn_for_solidity/contracts/HelloWorld.sol",
  "compiler": {
    "name": "solc",
    "version": "0.7.0+commit.9e61f92b.Emscripten.clang"
  },
  "schemaVersion": "3.3.1",
  "updatedAt": "2021-06-27T17:29:17.236Z",
  "networkType": "ethereum",
  "devdoc": {
    "kind": "dev",
    "methods": {},
    "version": 1
  },
  "userdoc": {
    "kind": "user",
    "methods": {},
    "version": 1
  }
}