{
  "contractName": "KNN",
  "abi": [
    {
      "inputs": [],
      "stateMutability": "nonpayable",
      "type": "constructor"
    },
    {
      "anonymous": false,
      "inputs": [
        {
          "indexed": false,
          "internalType": "address",
          "name": "_from",
          "type": "address"
        }
      ],
      "name": "DeploySuccess",
      "type": "event"
    },
    {
      "anonymous": false,
      "inputs": [
        {
          "indexed": false,
          "internalType": "address",
          "name": "_from",
          "type": "address"
        }
      ],
      "name": "ReadDataSuccess",
      "type": "event"
    },
    {
      "inputs": [
        {
          "internalType": "uint256",
          "name": "",
          "type": "uint256"
        }
      ],
      "name": "m_data",
      "outputs": [
        {
          "internalType": "int32",
          "name": "",
          "type": "int32"
        }
      ],
      "stateMutability": "view",
      "type": "function",
      "constant": true
    },
    {
      "inputs": [],
      "name": "get_data_size",
      "outputs": [
        {
          "internalType": "uint256",
          "name": "len",
          "type": "uint256"
        }
      ],
      "stateMutability": "view",
      "type": "function",
      "constant": true
    },
    {
      "inputs": [
        {
          "internalType": "int32[700]",
          "name": "tmp_data",
          "type": "int32[700]"
        }
      ],
      "name": "add_data",
      "outputs": [],
      "stateMutability": "nonpayable",
      "type": "function"
    },
    {
      "inputs": [
        {
          "internalType": "uint32",
          "name": "k",
          "type": "uint32"
        },
        {
          "internalType": "uint32",
          "name": "column",
          "type": "uint32"
        },
        {
          "internalType": "uint32",
          "name": "test_row",
          "type": "uint32"
        },
        {
          "internalType": "uint32",
          "name": "train_row",
          "type": "uint32"
        }
      ],
      "name": "CorrectRate",
      "outputs": [
        {
          "internalType": "uint32",
          "name": "CorrectNum",
          "type": "uint32"
        }
      ],
      "stateMutability": "nonpayable",
      "type": "function"
    },
    {
      "inputs": [
        {
          "internalType": "int32[]",
          "name": "Input",
          "type": "int32[]"
        },
        {
          "internalType": "int32[]",
          "name": "TrainData",
          "type": "int32[]"
        },
        {
          "internalType": "uint32",
          "name": "i",
          "type": "uint32"
        }
      ],
      "name": "GetDistance",
      "outputs": [
        {
          "internalType": "int32",
          "name": "Dist",
          "type": "int32"
        }
      ],
      "stateMutability": "nonpayable",
      "type": "function"
    }
  ],
  "bytecode": "0x60806040523480156200001157600080fd5b50336000806101000a81548173ffffffffffffffffffffffffffffffffffffffff021916908373ffffffffffffffffffffffffffffffffffffffff160217905550600067ffffffffffffffff811180156200006b57600080fd5b506040519080825280602002602001820160405280156200009b5781602001602082028036833780820191505090505b5060019080519060200190620000b3929190620000f3565b507f805bcac661d9e3e94611d980215b65c2f74bc2e7b3ff7f3b83a348e191a5924433604051620000e59190620001eb565b60405180910390a162000264565b828054828255906000526020600020906007016008900481019282156200019a5791602002820160005b838211156200016657835183826101000a81548163ffffffff021916908360030b63ffffffff16021790555092602001926004016020816003010492830192600103026200011d565b8015620001985782816101000a81549063ffffffff021916905560040160208160030104928301926001030262000166565b505b509050620001a99190620001ad565b5090565b5b80821115620001d657600081816101000a81549063ffffffff021916905550600101620001ae565b5090565b620001e58162000228565b82525050565b6000602082019050620002026000830184620001da565b92915050565b600073ffffffffffffffffffffffffffffffffffffffff82169050919050565b600062000235826200023c565b9050919050565b6000620002498262000250565b9050919050565b60006200025d8262000208565b9050919050565b6115f980620002746000396000f3fe608060405234801561001057600080fd5b5060043610610074576000357c0100000000000000000000000000000000000000000000000000000000900480630a0cedfc1461007957806352edf624146100a95780636a6693be146100c757806384018343146100f7578063ba069d7814610127575b600080fd5b610093600480360381019061008e9190611225565b610143565b6040516100a091906113c8565b60405180910390f35b6100b1610177565b6040516100be9190611443565b60405180910390f35b6100e160048036038101906100dc919061124e565b610184565b6040516100ee919061145e565b60405180910390f35b610111600480360381019061010c91906111a6565b6103ed565b60405161011e91906113c8565b60405180910390f35b610141600480360381019061013c919061117c565b61045d565b005b6001818154811061015057fe5b9060005260206000209060089182820401919006600402915054906101000a900460030b81565b6000600180549050905090565b600060148563ffffffff16106101cf576040517f08c379a00000000000000000000000000000000000000000000000000000000081526004016101c6906113e3565b60405180910390fd5b84600660006101000a81548163ffffffff021916908363ffffffff160217905550836006600c6101000a81548163ffffffff021916908363ffffffff16021790555082600660046101000a81548163ffffffff021916908363ffffffff16021790555081600660086101000a81548163ffffffff021916908363ffffffff16021790555061025b6104e7565b6000905060005b600660049054906101000a900463ffffffff1663ffffffff168163ffffffff1610156103e45760606006600c9054906101000a900463ffffffff1663ffffffff1667ffffffffffffffff811180156102b957600080fd5b506040519080825280602002602001820160405280156102e85781602001602082028036833780820191505090505b5090506000806006600c9054906101000a900463ffffffff16840290505b82518163ffffffff1610156103825760038163ffffffff168154811061032857fe5b90600052602060002090600891828204019190066004029054906101000a900460030b838380600101945063ffffffff168151811061036357fe5b602002602001019060030b908160030b81525050806001019050610306565b5060058363ffffffff168154811061039657fe5b90600052602060002090600891828204019190066004029054906101000a900460030b60030b6103c583610ad0565b60030b14156103d75783806001019450505b5050806001019050610262565b50949350505050565b6000805b84518163ffffffff161015610455576000848480600101955063ffffffff168151811061041a57fe5b6020026020010151868363ffffffff168151811061043457fe5b602002602001015103905080810290508083019250508060010190506103f1565b509392505050565b60005b6102bc8163ffffffff1610156104e3576001828263ffffffff166102bc811061048557fe5b602002015190806001815401808255809150506001900390600052602060002090600891828204019190066004029091909190916101000a81548163ffffffff021916908360030b63ffffffff160217905550806001019050610460565b5050565b60016006600c9054906101000a900463ffffffff1601600660049054906101000a900463ffffffff16600660089054906101000a900463ffffffff16010263ffffffff166001805490501015610572576040517f08c379a000000000000000000000000000000000000000000000000000000000815260040161056990611423565b60405180910390fd5b6006600c9054906101000a900463ffffffff16600660089054906101000a900463ffffffff160263ffffffff1667ffffffffffffffff811180156105b557600080fd5b506040519080825280602002602001820160405280156105e45781602001602082028036833780820191505090505b50600290805190602001906105fa929190610f67565b506006600c9054906101000a900463ffffffff16600660049054906101000a900463ffffffff160263ffffffff1667ffffffffffffffff8111801561063e57600080fd5b5060405190808252806020026020018201604052801561066d5781602001602082028036833780820191505090505b5060039080519060200190610683929190610f67565b50600660089054906101000a900463ffffffff1663ffffffff1667ffffffffffffffff811180156106b357600080fd5b506040519080825280602002602001820160405280156106e25781602001602082028036833780820191505090505b50600490805190602001906106f8929190610f67565b50600660049054906101000a900463ffffffff1663ffffffff1667ffffffffffffffff8111801561072857600080fd5b506040519080825280602002602001820160405280156107575781602001602082028036833780820191505090505b506005908051906020019061076d929190610f67565b5060008060005b6001805490508363ffffffff1610156109015760005b6006600c9054906101000a900463ffffffff1663ffffffff168163ffffffff1610156108465760018480600101955063ffffffff16815481106107c957fe5b90600052602060002090600891828204019190066004029054906101000a900460030b60038480600101955063ffffffff168154811061080557fe5b90600052602060002090600891828204019190066004026101000a81548163ffffffff021916908360030b63ffffffff16021790555080600101905061078a565b5060018380600101945063ffffffff168154811061086057fe5b90600052602060002090600891828204019190066004029054906101000a900460030b60058280600101935063ffffffff168154811061089c57fe5b90600052602060002090600891828204019190066004026101000a81548163ffffffff021916908360030b63ffffffff160217905550600660049054906101000a900463ffffffff1663ffffffff168163ffffffff16106108fc57610901565b610774565b6000805b6001805490508563ffffffff161015610a925760005b6006600c9054906101000a900463ffffffff1663ffffffff168163ffffffff1610156109d75760018680600101975063ffffffff168154811061095a57fe5b90600052602060002090600891828204019190066004029054906101000a900460030b60028480600101955063ffffffff168154811061099657fe5b90600052602060002090600891828204019190066004026101000a81548163ffffffff021916908360030b63ffffffff16021790555080600101905061091b565b5060018580600101965063ffffffff16815481106109f157fe5b90600052602060002090600891828204019190066004029054906101000a900460030b60048280600101935063ffffffff1681548110610a2d57fe5b90600052602060002090600891828204019190066004026101000a81548163ffffffff021916908360030b63ffffffff160217905550600660089054906101000a900463ffffffff1663ffffffff168163ffffffff1610610a8d57610a92565b610905565b7f97372b99c63c5b8459f829e0d9830cb1bee60dc71ec3aaaf6535b447632c7d6733604051610ac191906113ad565b60405180910390a15050505050565b60006060600660089054906101000a900463ffffffff1663ffffffff1667ffffffffffffffff81118015610b0357600080fd5b50604051908082528060200260200182016040528015610b325781602001602082028036833780820191505090505b50905060005b600660089054906101000a900463ffffffff1663ffffffff168163ffffffff161015610b91576000828263ffffffff1681518110610b7257fe5b602002602001019060030b908160030b81525050806001019050610b38565b506060600660009054906101000a900463ffffffff1663ffffffff1667ffffffffffffffff81118015610bc357600080fd5b50604051908082528060200260200182016040528015610bf25781602001602082028036833780820191505090505b50905060005b600660009054906101000a900463ffffffff1663ffffffff168163ffffffff161015610ce1577fffffffffffffffffffffffffffffffffffffffffffffffffffffffffffffffff828263ffffffff1681518110610c5157fe5b602002602001019060030b908160030b81525050610c6e83610cf4565b828263ffffffff1681518110610c8057fe5b602002602001019060030b908160030b8152505061270f83838363ffffffff1681518110610caa57fe5b602002602001015163ffffffff1681518110610cc257fe5b602002602001019060030b908160030b81525050806001019050610bf8565b50610ceb81610da4565b92505050919050565b60008061270f905060005b83518163ffffffff161015610d89578160030b848263ffffffff1681518110610d2457fe5b602002602001015160030b128015610d5957506000848263ffffffff1681518110610d4b57fe5b602002602001015160030b12155b15610d7e57838163ffffffff1681518110610d7057fe5b602002602001015191508092505b806001019050610cff565b50600060030b8260030b1215610d9e57600080fd5b50919050565b60006060600660009054906101000a900463ffffffff1663ffffffff1667ffffffffffffffff81118015610dd757600080fd5b50604051908082528060200260200182016040528015610e065781602001602082028036833780820191505090505b50905060007fffffffffffffffffffffffffffffffffffffffffffffffffffffffffffffffff925060005b600660009054906101000a900463ffffffff1663ffffffff168163ffffffff161015610f185760006004868363ffffffff1681518110610e6d57fe5b602002602001015163ffffffff1681548110610e8557fe5b90600052602060002090600891828204019190066004029054906101000a900460030b90508263ffffffff16848263ffffffff1681518110610ec357fe5b60200260200101805160010163ffffffff16908163ffffffff1681525063ffffffff161115610f0c57838163ffffffff1681518110610efe57fe5b602002602001015192508094505b50806001019050610e31565b5060008360030b1215610f60576040517f08c379a0000000000000000000000000000000000000000000000000000000008152600401610f5790611403565b60405180910390fd5b5050919050565b828054828255906000526020600020906007016008900481019282156110095791602002820160005b83821115610fd757835183826101000a81548163ffffffff021916908360030b63ffffffff1602179055509260200192600401602081600301049283019260010302610f90565b80156110075782816101000a81549063ffffffff0219169055600401602081600301049283019260010302610fd7565b505b509050611016919061101a565b5090565b5b8082111561104157600081816101000a81549063ffffffff02191690555060010161101b565b5090565b600082601f83011261105657600080fd5b6102bc61106a611065826114a6565b611479565b9150818385602084028201111561108057600080fd5b60005b838110156110b05781611096888261113d565b845260208401935060208301925050600181019050611083565b5050505092915050565b600082601f8301126110cb57600080fd5b81356110de6110d9826114c8565b611479565b9150818183526020840193506020810190508385602084028201111561110357600080fd5b60005b838110156111335781611119888261113d565b845260208401935060208301925050600181019050611106565b5050505092915050565b60008135905061114c8161157e565b92915050565b60008135905061116181611595565b92915050565b600081359050611176816115ac565b92915050565b6000615780828403121561118f57600080fd5b600061119d84828501611045565b91505092915050565b6000806000606084860312156111bb57600080fd5b600084013567ffffffffffffffff8111156111d557600080fd5b6111e1868287016110ba565b935050602084013567ffffffffffffffff8111156111fe57600080fd5b61120a868287016110ba565b925050604061121b86828701611167565b9150509250925092565b60006020828403121561123757600080fd5b600061124584828501611152565b91505092915050565b6000806000806080858703121561126457600080fd5b600061127287828801611167565b945050602061128387828801611167565b935050604061129487828801611167565b92505060606112a587828801611167565b91505092959194509250565b6112ba81611548565b82525050565b6112c981611501565b82525050565b60006112dc6010836114f0565b91507f746f6f206d616e7920636c6173736573000000000000000000000000000000006000830152602082019050919050565b600061131c6012836114f0565b91507f4572726f72206f66204765744d617853657100000000000000000000000000006000830152602082019050919050565b600061135c6012836114f0565b91507f64617461206973206e6f7420656e6f75676800000000000000000000000000006000830152602082019050919050565b6113988161152e565b82525050565b6113a781611538565b82525050565b60006020820190506113c260008301846112b1565b92915050565b60006020820190506113dd60008301846112c0565b92915050565b600060208201905081810360008301526113fc816112cf565b9050919050565b6000602082019050818103600083015261141c8161130f565b9050919050565b6000602082019050818103600083015261143c8161134f565b9050919050565b6000602082019050611458600083018461138f565b92915050565b6000602082019050611473600083018461139e565b92915050565b6000604051905081810181811067ffffffffffffffff8211171561149c57600080fd5b8060405250919050565b600067ffffffffffffffff8211156114bd57600080fd5b602082029050919050565b600067ffffffffffffffff8211156114df57600080fd5b602082029050602081019050919050565b600082825260208201905092915050565b60008160030b9050919050565b600073ffffffffffffffffffffffffffffffffffffffff82169050919050565b6000819050919050565b600063ffffffff82169050919050565b60006115538261155a565b9050919050565b60006115658261156c565b9050919050565b60006115778261150e565b9050919050565b61158781611501565b811461159257600080fd5b50565b61159e8161152e565b81146115a957600080fd5b50565b6115b581611538565b81146115c057600080fd5b5056fea264697066735822122043a69c43f4cc01b1964fc8416ceb930ba1e1978ca7334ce4ef78e027eaa1ed1f64736f6c63430007000033",
  "immutableReferences": {},
  "source": "// SPDX-License-Identifier: GPL-3.0\r\npragma solidity >=0.7.0 <0.9.0;\r\npragma experimental ABIEncoderV2;\r\n\r\n/// @title 委托投票\r\ncontract KNN {\r\n    \r\n    address owner;\r\n    \r\n    int32[] public m_data;\r\n\r\n    int32[] private m_TrainData;\r\n    int32[] private m_TestData;\r\n    int32[] private m_TrainLabels;\r\n    int32[] private m_TestLabels;\r\n\r\n    uint32 private m_k;\r\n    uint32 private m_test_row;\r\n    uint32 private m_train_row;\r\n    uint32 private m_column;\r\n\r\n\r\n    event DeploySuccess(address _from);\r\n    event ReadDataSuccess(address _from);\r\n\r\n    constructor() public {\r\n        owner = msg.sender;\r\n        m_data = new int32[](0);\r\n        emit DeploySuccess(msg.sender);\r\n    }\r\n\r\n    function get_data_size() public view returns(uint256 len){\r\n        len = m_data.length;\r\n    }\r\n\r\n    function add_data(int32[700] memory tmp_data) public {\r\n        for(uint32 i = 0; i < tmp_data.length; ++i)\r\n            m_data.push(tmp_data[i]);\r\n    }\r\n\r\n\r\n    function readData() internal {\r\n        require(m_data.length >= (m_train_row + m_test_row)*(m_column+1), \"data is not enough\");\r\n        m_TrainData = new int32[](m_train_row*m_column);\r\n        m_TestData = new int32[](m_test_row*m_column);\r\n        m_TrainLabels = new int32[](m_train_row);\r\n        m_TestLabels = new int32[](m_test_row); \r\n\r\n        uint32 i = 0;\r\n        uint32 test_data_idx = 0;\r\n        uint32 test_label_idx = 0;\r\n        // reading test data\r\n        while(i < m_data.length)\r\n        {\r\n            for (uint32 j = 0; j < m_column; ++j)\r\n                m_TestData[test_data_idx++] = m_data[i++];\r\n            m_TestLabels[test_label_idx++] = m_data[i++];\r\n            if( test_label_idx >= m_test_row)\r\n                break;\r\n        }\r\n\r\n        uint32 train_data_idx = 0;\r\n        uint32 train_label_idx = 0;\r\n        // reading train data\r\n        while(i < m_data.length)\r\n        {\r\n            for (uint32 j = 0; j < m_column; ++j)\r\n                m_TrainData[train_data_idx++] = m_data[i++];\r\n            m_TrainLabels[train_label_idx++] = m_data[i++];\r\n            if( train_label_idx >= m_train_row)\r\n                break;\r\n        }\r\n\r\n        emit ReadDataSuccess(msg.sender);\r\n    }\r\n\r\n    function CorrectRate(uint32 k, uint32 column, uint32 test_row, uint32 train_row) \r\n    public returns(uint32 CorrectNum){\r\n        require(k < 20, \"too many classes\");\r\n        m_k = k;\r\n        m_column = column;\r\n        m_test_row = test_row;\r\n        m_train_row = train_row;\r\n        readData();\r\n\r\n        {\r\n            CorrectNum = 0;\r\n            for(uint32 i = 0; i < m_test_row; ++i){\r\n                int32[] memory Input = new int32[](m_column);\r\n                uint32 idx = 0;\r\n                for(uint32 x = i * m_column; x < Input.length; ++x)\r\n                    Input[idx++] = m_TestData[x];\r\n                if(Classify(Input) == m_TestLabels[i])\r\n                    CorrectNum++;\r\n            }\r\n        }\r\n        return CorrectNum;\r\n    }\r\n\r\n    function Classify(int32[] memory Input) internal returns(int32 idx){\r\n        int32[] memory Distance = new int32[](m_train_row);\r\n        for(uint32 i = 0; i < m_train_row; ++i){\r\n            Distance[i] = 0;\r\n            // uint32 param = i * m_column;\r\n            // Distance[i] = GetDistance(Input, m_TrainData, param);\r\n        }\r\n        int32[] memory LabelMinIdx = new int32[](m_k);\r\n        for(uint32 i = 0; i < m_k; ++i){\r\n            LabelMinIdx[i] = -1;\r\n            LabelMinIdx[i] = GetMinDistIndex(Distance);\r\n            Distance[uint32(LabelMinIdx[i])] = (9999);\r\n        }\r\n        idx = GetMaxSeq(LabelMinIdx);\r\n        return idx;\r\n    }\r\n\r\n    function GetDistance(int32[] memory Input, int32[] memory TrainData, uint32 i) public returns (int32 Dist) {\r\n        Dist = 0;\r\n        for(uint32 k = 0; k < Input.length; ++k){\r\n            int32 diff = (Input[k] - TrainData[i++]);\r\n            diff = diff * diff;\r\n            Dist += diff;\r\n        }\r\n    }\r\n\r\n\r\n    function GetMinDistIndex(int32[] memory Distance) internal view returns(int32 Index){\r\n        int32 DistMin = 9999;\r\n        for(uint32 i = 0; i < Distance.length; ++i){\r\n            if (Distance[i] < DistMin && Distance[i] >= 0){\r\n                DistMin = Distance[i];\r\n                Index = int32(i);\r\n            }\r\n        }\r\n        require(Index >= int32(0));\r\n    }\r\n\r\n\r\n    function GetMaxSeq(int32[] memory LabelMinIdx) internal view returns (int32 LabelMaxSeq){\r\n        uint32[] memory LabelAppearTime = new uint32[](m_k);\r\n        uint32 times = 0;\r\n        LabelMaxSeq = -1;\r\n        for(uint32 i = 0; i < m_k; ++i){\r\n            int32 label = m_TrainLabels[uint32(LabelMinIdx[i])];\r\n            if(++LabelAppearTime[uint32(label)]> times){\r\n                times = LabelAppearTime[uint32(label)];\r\n                LabelMaxSeq = label;\r\n            }\r\n        }\r\n        require(LabelMaxSeq>=0, \"Error of GetMaxSeq\");\r\n    }\r\n}",
  "sourcePath": "D:/githubSoftware/TruffleProj/knn_for_solidity/contracts/KNN.sol",
  "compiler": {
    "name": "solc",
    "version": "0.7.0+commit.9e61f92b.Emscripten.clang"
  },
  "schemaVersion": "3.3.1",
  "updatedAt": "2021-06-27T17:29:15.224Z",
  "networkType": "ethereum",
  "devdoc": {
    "kind": "dev",
    "methods": {},
    "title": "委托投票",
    "version": 1
  },
  "userdoc": {
    "kind": "user",
    "methods": {},
    "version": 1
  }
}