{
  "contractName": "KNN",
  "abi": [
    {
      "inputs": [],
      "stateMutability": "nonpayable",
      "type": "constructor"
    },
    {
      "anonymous": false,
      "inputs": [
        {
          "indexed": false,
          "internalType": "address",
          "name": "_from",
          "type": "address"
        }
      ],
      "name": "DeploySuccess",
      "type": "event"
    },
    {
      "anonymous": false,
      "inputs": [
        {
          "indexed": false,
          "internalType": "address",
          "name": "_from",
          "type": "address"
        }
      ],
      "name": "ReadDataSuccess",
      "type": "event"
    },
    {
      "inputs": [
        {
          "internalType": "uint256",
          "name": "",
          "type": "uint256"
        }
      ],
      "name": "m_data",
      "outputs": [
        {
          "internalType": "int32",
          "name": "",
          "type": "int32"
        }
      ],
      "stateMutability": "view",
      "type": "function",
      "constant": true
    },
    {
      "inputs": [],
      "name": "get_data_size",
      "outputs": [
        {
          "internalType": "uint256",
          "name": "len",
          "type": "uint256"
        }
      ],
      "stateMutability": "view",
      "type": "function",
      "constant": true
    },
    {
      "inputs": [
        {
          "internalType": "int32[700]",
          "name": "tmp_data",
          "type": "int32[700]"
        }
      ],
      "name": "add_data",
      "outputs": [],
      "stateMutability": "nonpayable",
      "type": "function"
    },
    {
      "inputs": [
        {
          "internalType": "uint32",
          "name": "k",
          "type": "uint32"
        },
        {
          "internalType": "uint32",
          "name": "column",
          "type": "uint32"
        },
        {
          "internalType": "uint32",
          "name": "test_row",
          "type": "uint32"
        },
        {
          "internalType": "uint32",
          "name": "train_row",
          "type": "uint32"
        }
      ],
      "name": "CorrectRate",
      "outputs": [
        {
          "internalType": "uint32",
          "name": "CorrectNum",
          "type": "uint32"
        }
      ],
      "stateMutability": "nonpayable",
      "type": "function"
    },
    {
      "inputs": [
        {
          "internalType": "int32[]",
          "name": "Input",
          "type": "int32[]"
        },
        {
          "internalType": "int32[]",
          "name": "TrainData",
          "type": "int32[]"
        },
        {
          "internalType": "uint32",
          "name": "i",
          "type": "uint32"
        }
      ],
      "name": "GetDistance",
      "outputs": [
        {
          "internalType": "int32",
          "name": "Dist",
          "type": "int32"
        }
      ],
      "stateMutability": "pure",
      "type": "function",
      "constant": true
    }
  ],
  "bytecode": "0x60806040523480156200001157600080fd5b50336000806101000a81548173ffffffffffffffffffffffffffffffffffffffff021916908373ffffffffffffffffffffffffffffffffffffffff160217905550600067ffffffffffffffff811180156200006b57600080fd5b506040519080825280602002602001820160405280156200009b5781602001602082028036833780820191505090505b5060019080519060200190620000b3929190620000f3565b507f805bcac661d9e3e94611d980215b65c2f74bc2e7b3ff7f3b83a348e191a5924433604051620000e59190620001eb565b60405180910390a162000264565b828054828255906000526020600020906007016008900481019282156200019a5791602002820160005b838211156200016657835183826101000a81548163ffffffff021916908360030b63ffffffff16021790555092602001926004016020816003010492830192600103026200011d565b8015620001985782816101000a81549063ffffffff021916905560040160208160030104928301926001030262000166565b505b509050620001a99190620001ad565b5090565b5b80821115620001d657600081816101000a81549063ffffffff021916905550600101620001ae565b5090565b620001e58162000228565b82525050565b6000602082019050620002026000830184620001da565b92915050565b600073ffffffffffffffffffffffffffffffffffffffff82169050919050565b600062000235826200023c565b9050919050565b6000620002498262000250565b9050919050565b60006200025d8262000208565b9050919050565b6116b480620002746000396000f3fe608060405234801561001057600080fd5b5060043610610074576000357c0100000000000000000000000000000000000000000000000000000000900480630a0cedfc1461007957806352edf624146100a95780636a6693be146100c757806384018343146100f7578063ba069d7814610127575b600080fd5b610093600480360381019061008e9190611280565b610143565b6040516100a09190611463565b60405180910390f35b6100b1610177565b6040516100be91906114fe565b60405180910390f35b6100e160048036038101906100dc91906112a9565b610184565b6040516100ee9190611519565b60405180910390f35b610111600480360381019061010c9190611201565b6103ed565b60405161011e9190611463565b60405180910390f35b610141600480360381019061013c91906111d7565b61045d565b005b6001818154811061015057fe5b9060005260206000209060089182820401919006600402915054906101000a900460030b81565b6000600180549050905090565b600060148563ffffffff16106101cf576040517f08c379a00000000000000000000000000000000000000000000000000000000081526004016101c69061147e565b60405180910390fd5b84600660006101000a81548163ffffffff021916908363ffffffff160217905550836006600c6101000a81548163ffffffff021916908363ffffffff16021790555082600660046101000a81548163ffffffff021916908363ffffffff16021790555081600660086101000a81548163ffffffff021916908363ffffffff16021790555061025b6104e7565b6000905060005b600660049054906101000a900463ffffffff1663ffffffff168163ffffffff1610156103e45760606006600c9054906101000a900463ffffffff1663ffffffff1667ffffffffffffffff811180156102b957600080fd5b506040519080825280602002602001820160405280156102e85781602001602082028036833780820191505090505b5090506000806006600c9054906101000a900463ffffffff16840290505b82518163ffffffff1610156103825760038163ffffffff168154811061032857fe5b90600052602060002090600891828204019190066004029054906101000a900460030b838380600101945063ffffffff168151811061036357fe5b602002602001019060030b908160030b81525050806001019050610306565b5060058363ffffffff168154811061039657fe5b90600052602060002090600891828204019190066004029054906101000a900460030b60030b6103c583610ad0565b60030b14156103d75783806001019450505b5050806001019050610262565b50949350505050565b6000805b84518163ffffffff161015610455576000848480600101955063ffffffff168151811061041a57fe5b6020026020010151868363ffffffff168151811061043457fe5b602002602001015103905080810290508083019250508060010190506103f1565b509392505050565b60005b6102bc8163ffffffff1610156104e3576001828263ffffffff166102bc811061048557fe5b602002015190806001815401808255809150506001900390600052602060002090600891828204019190066004029091909190916101000a81548163ffffffff021916908360030b63ffffffff160217905550806001019050610460565b5050565b60016006600c9054906101000a900463ffffffff1601600660049054906101000a900463ffffffff16600660089054906101000a900463ffffffff16010263ffffffff166001805490501015610572576040517f08c379a0000000000000000000000000000000000000000000000000000000008152600401610569906114de565b60405180910390fd5b6006600c9054906101000a900463ffffffff16600660089054906101000a900463ffffffff160263ffffffff1667ffffffffffffffff811180156105b557600080fd5b506040519080825280602002602001820160405280156105e45781602001602082028036833780820191505090505b50600290805190602001906105fa929190610fc2565b506006600c9054906101000a900463ffffffff16600660049054906101000a900463ffffffff160263ffffffff1667ffffffffffffffff8111801561063e57600080fd5b5060405190808252806020026020018201604052801561066d5781602001602082028036833780820191505090505b5060039080519060200190610683929190610fc2565b50600660089054906101000a900463ffffffff1663ffffffff1667ffffffffffffffff811180156106b357600080fd5b506040519080825280602002602001820160405280156106e25781602001602082028036833780820191505090505b50600490805190602001906106f8929190610fc2565b50600660049054906101000a900463ffffffff1663ffffffff1667ffffffffffffffff8111801561072857600080fd5b506040519080825280602002602001820160405280156107575781602001602082028036833780820191505090505b506005908051906020019061076d929190610fc2565b5060008060005b6001805490508363ffffffff1610156109015760005b6006600c9054906101000a900463ffffffff1663ffffffff168163ffffffff1610156108465760018480600101955063ffffffff16815481106107c957fe5b90600052602060002090600891828204019190066004029054906101000a900460030b60038480600101955063ffffffff168154811061080557fe5b90600052602060002090600891828204019190066004026101000a81548163ffffffff021916908360030b63ffffffff16021790555080600101905061078a565b5060018380600101945063ffffffff168154811061086057fe5b90600052602060002090600891828204019190066004029054906101000a900460030b60058280600101935063ffffffff168154811061089c57fe5b90600052602060002090600891828204019190066004026101000a81548163ffffffff021916908360030b63ffffffff160217905550600660049054906101000a900463ffffffff1663ffffffff168163ffffffff16106108fc57610901565b610774565b6000805b6001805490508563ffffffff161015610a925760005b6006600c9054906101000a900463ffffffff1663ffffffff168163ffffffff1610156109d75760018680600101975063ffffffff168154811061095a57fe5b90600052602060002090600891828204019190066004029054906101000a900460030b60028480600101955063ffffffff168154811061099657fe5b90600052602060002090600891828204019190066004026101000a81548163ffffffff021916908360030b63ffffffff16021790555080600101905061091b565b5060018580600101965063ffffffff16815481106109f157fe5b90600052602060002090600891828204019190066004029054906101000a900460030b60048280600101935063ffffffff1681548110610a2d57fe5b90600052602060002090600891828204019190066004026101000a81548163ffffffff021916908360030b63ffffffff160217905550600660089054906101000a900463ffffffff1663ffffffff168163ffffffff1610610a8d57610a92565b610905565b7f97372b99c63c5b8459f829e0d9830cb1bee60dc71ec3aaaf6535b447632c7d6733604051610ac19190611448565b60405180910390a15050505050565b60006006600c9054906101000a900463ffffffff1663ffffffff16825114610b2d576040517f08c379a0000000000000000000000000000000000000000000000000000000008152600401610b249061149e565b60405180910390fd5b6060600660089054906101000a900463ffffffff1663ffffffff1667ffffffffffffffff81118015610b5e57600080fd5b50604051908082528060200260200182016040528015610b8d5781602001602082028036833780820191505090505b50905060005b600660089054906101000a900463ffffffff1663ffffffff168163ffffffff161015610bec576000828263ffffffff1681518110610bcd57fe5b602002602001019060030b908160030b81525050806001019050610b93565b506060600660009054906101000a900463ffffffff1663ffffffff1667ffffffffffffffff81118015610c1e57600080fd5b50604051908082528060200260200182016040528015610c4d5781602001602082028036833780820191505090505b50905060005b600660009054906101000a900463ffffffff1663ffffffff168163ffffffff161015610d3c577fffffffffffffffffffffffffffffffffffffffffffffffffffffffffffffffff828263ffffffff1681518110610cac57fe5b602002602001019060030b908160030b81525050610cc983610d4f565b828263ffffffff1681518110610cdb57fe5b602002602001019060030b908160030b8152505061270f83838363ffffffff1681518110610d0557fe5b602002602001015163ffffffff1681518110610d1d57fe5b602002602001019060030b908160030b81525050806001019050610c53565b50610d4681610dff565b92505050919050565b60008061270f905060005b83518163ffffffff161015610de4578160030b848263ffffffff1681518110610d7f57fe5b602002602001015160030b128015610db457506000848263ffffffff1681518110610da657fe5b602002602001015160030b12155b15610dd957838163ffffffff1681518110610dcb57fe5b602002602001015191508092505b806001019050610d5a565b50600060030b8260030b1215610df957600080fd5b50919050565b60006060600660009054906101000a900463ffffffff1663ffffffff1667ffffffffffffffff81118015610e3257600080fd5b50604051908082528060200260200182016040528015610e615781602001602082028036833780820191505090505b50905060007fffffffffffffffffffffffffffffffffffffffffffffffffffffffffffffffff925060005b600660009054906101000a900463ffffffff1663ffffffff168163ffffffff161015610f735760006004868363ffffffff1681518110610ec857fe5b602002602001015163ffffffff1681548110610ee057fe5b90600052602060002090600891828204019190066004029054906101000a900460030b90508263ffffffff16848263ffffffff1681518110610f1e57fe5b60200260200101805160010163ffffffff16908163ffffffff1681525063ffffffff161115610f6757838163ffffffff1681518110610f5957fe5b602002602001015192508094505b50806001019050610e8c565b5060008360030b1215610fbb576040517f08c379a0000000000000000000000000000000000000000000000000000000008152600401610fb2906114be565b60405180910390fd5b5050919050565b828054828255906000526020600020906007016008900481019282156110645791602002820160005b8382111561103257835183826101000a81548163ffffffff021916908360030b63ffffffff1602179055509260200192600401602081600301049283019260010302610feb565b80156110625782816101000a81549063ffffffff0219169055600401602081600301049283019260010302611032565b505b5090506110719190611075565b5090565b5b8082111561109c57600081816101000a81549063ffffffff021916905550600101611076565b5090565b600082601f8301126110b157600080fd5b6102bc6110c56110c082611561565b611534565b915081838560208402820111156110db57600080fd5b60005b8381101561110b57816110f18882611198565b8452602084019350602083019250506001810190506110de565b5050505092915050565b600082601f83011261112657600080fd5b813561113961113482611583565b611534565b9150818183526020840193506020810190508385602084028201111561115e57600080fd5b60005b8381101561118e57816111748882611198565b845260208401935060208301925050600181019050611161565b5050505092915050565b6000813590506111a781611639565b92915050565b6000813590506111bc81611650565b92915050565b6000813590506111d181611667565b92915050565b600061578082840312156111ea57600080fd5b60006111f8848285016110a0565b91505092915050565b60008060006060848603121561121657600080fd5b600084013567ffffffffffffffff81111561123057600080fd5b61123c86828701611115565b935050602084013567ffffffffffffffff81111561125957600080fd5b61126586828701611115565b9250506040611276868287016111c2565b9150509250925092565b60006020828403121561129257600080fd5b60006112a0848285016111ad565b91505092915050565b600080600080608085870312156112bf57600080fd5b60006112cd878288016111c2565b94505060206112de878288016111c2565b93505060406112ef878288016111c2565b9250506060611300878288016111c2565b91505092959194509250565b61131581611603565b82525050565b611324816115bc565b82525050565b60006113376010836115ab565b91507f746f6f206d616e7920636c6173736573000000000000000000000000000000006000830152602082019050919050565b60006113776015836115ab565b91507f4572726f72206f6620496e707574206c656e67746800000000000000000000006000830152602082019050919050565b60006113b76012836115ab565b91507f4572726f72206f66204765744d617853657100000000000000000000000000006000830152602082019050919050565b60006113f76012836115ab565b91507f64617461206973206e6f7420656e6f75676800000000000000000000000000006000830152602082019050919050565b611433816115e9565b82525050565b611442816115f3565b82525050565b600060208201905061145d600083018461130c565b92915050565b6000602082019050611478600083018461131b565b92915050565b600060208201905081810360008301526114978161132a565b9050919050565b600060208201905081810360008301526114b78161136a565b9050919050565b600060208201905081810360008301526114d7816113aa565b9050919050565b600060208201905081810360008301526114f7816113ea565b9050919050565b6000602082019050611513600083018461142a565b92915050565b600060208201905061152e6000830184611439565b92915050565b6000604051905081810181811067ffffffffffffffff8211171561155757600080fd5b8060405250919050565b600067ffffffffffffffff82111561157857600080fd5b602082029050919050565b600067ffffffffffffffff82111561159a57600080fd5b602082029050602081019050919050565b600082825260208201905092915050565b60008160030b9050919050565b600073ffffffffffffffffffffffffffffffffffffffff82169050919050565b6000819050919050565b600063ffffffff82169050919050565b600061160e82611615565b9050919050565b600061162082611627565b9050919050565b6000611632826115c9565b9050919050565b611642816115bc565b811461164d57600080fd5b50565b611659816115e9565b811461166457600080fd5b50565b611670816115f3565b811461167b57600080fd5b5056fea2646970667358221220acfed09730ea700419c24d59b266f9af2f918ca22517da022ed7dc0422b87b7464736f6c63430007000033",
  "immutableReferences": {},
  "source": "// SPDX-License-Identifier: GPL-3.0\r\npragma solidity >=0.7.0 <0.9.0;\r\npragma experimental ABIEncoderV2;\r\n\r\n/// @title 委托投票\r\ncontract KNN {\r\n\r\n    address owner;\r\n\r\n    int32[] public m_data;\r\n\r\n    int32[] private m_TrainData;\r\n    int32[] private m_TestData;\r\n    int32[] private m_TrainLabels;\r\n    int32[] private m_TestLabels;\r\n\r\n    uint32 private m_k;\r\n    uint32 private m_test_row;\r\n    uint32 private m_train_row;\r\n    uint32 private m_column;\r\n\r\n\r\n    event DeploySuccess(address _from);\r\n    event ReadDataSuccess(address _from);\r\n\r\n    constructor() {\r\n        owner = msg.sender;\r\n        m_data = new int32[](0);\r\n        emit DeploySuccess(msg.sender);\r\n    }\r\n\r\n    function get_data_size() public view returns(uint256 len){\r\n        len = m_data.length;\r\n    }\r\n\r\n    function add_data(int32[700] memory tmp_data) public {\r\n        for(uint32 i = 0; i < tmp_data.length; ++i)\r\n            m_data.push(tmp_data[i]);\r\n    }\r\n\r\n\r\n    function readData() internal {\r\n        require(m_data.length >= (m_train_row + m_test_row)*(m_column+1), \"data is not enough\");\r\n        m_TrainData = new int32[](m_train_row*m_column);\r\n        m_TestData = new int32[](m_test_row*m_column);\r\n        m_TrainLabels = new int32[](m_train_row);\r\n        m_TestLabels = new int32[](m_test_row);\r\n\r\n        uint32 i = 0;\r\n        uint32 test_data_idx = 0;\r\n        uint32 test_label_idx = 0;\r\n        // reading test data\r\n        while(i < m_data.length)\r\n        {\r\n            for (uint32 j = 0; j < m_column; ++j)\r\n                m_TestData[test_data_idx++] = m_data[i++];\r\n            m_TestLabels[test_label_idx++] = m_data[i++];\r\n            if( test_label_idx >= m_test_row)\r\n                break;\r\n        }\r\n\r\n        uint32 train_data_idx = 0;\r\n        uint32 train_label_idx = 0;\r\n        // reading train data\r\n        while(i < m_data.length)\r\n        {\r\n            for (uint32 j = 0; j < m_column; ++j)\r\n                m_TrainData[train_data_idx++] = m_data[i++];\r\n            m_TrainLabels[train_label_idx++] = m_data[i++];\r\n            if( train_label_idx >= m_train_row)\r\n                break;\r\n        }\r\n\r\n        emit ReadDataSuccess(msg.sender);\r\n    }\r\n\r\n    function CorrectRate(uint32 k, uint32 column, uint32 test_row, uint32 train_row)\r\n    public returns(uint32 CorrectNum){\r\n        require(k < 20, \"too many classes\");\r\n        m_k = k;\r\n        m_column = column;\r\n        m_test_row = test_row;\r\n        m_train_row = train_row;\r\n        readData();\r\n\r\n        {\r\n            CorrectNum = 0;\r\n            for(uint32 i = 0; i < m_test_row; ++i){\r\n                int32[] memory Input = new int32[](m_column);\r\n                uint32 idx = 0;\r\n                for(uint32 x = i * m_column; x < Input.length; ++x)\r\n                    Input[idx++] = m_TestData[x];\r\n                if(Classify(Input) == m_TestLabels[i])\r\n                    CorrectNum++;\r\n            }\r\n        }\r\n        return CorrectNum;\r\n    }\r\n\r\n    function Classify(int32[] memory Input) internal view returns(int32 idx){\r\n        require(Input.length== m_column, \"Error of Input length\");\r\n        int32[] memory Distance = new int32[](m_train_row);\r\n        for(uint32 i = 0; i < m_train_row; ++i){\r\n            Distance[i] = 0;\r\n            // uint32 param = i * m_column;\r\n            // Distance[i] = GetDistance(Input, m_TrainData, param);\r\n        }\r\n        int32[] memory LabelMinIdx = new int32[](m_k);\r\n        for(uint32 i = 0; i < m_k; ++i){\r\n            LabelMinIdx[i] = -1;\r\n            LabelMinIdx[i] = GetMinDistIndex(Distance);\r\n            Distance[uint32(LabelMinIdx[i])] = (9999);\r\n        }\r\n        idx = GetMaxSeq(LabelMinIdx);\r\n        return idx;\r\n    }\r\n\r\n    function GetDistance(int32[] memory Input, int32[] memory TrainData, uint32 i) public pure returns (int32 Dist) {\r\n        Dist = 0;\r\n        for(uint32 k = 0; k < Input.length; ++k){\r\n            int32 diff = (Input[k] - TrainData[i++]);\r\n            diff = diff * diff;\r\n            Dist += diff;\r\n        }\r\n    }\r\n\r\n\r\n    function GetMinDistIndex(int32[] memory Distance) internal pure returns(int32 Index){\r\n        int32 DistMin = 9999;\r\n        for(uint32 i = 0; i < Distance.length; ++i){\r\n            if (Distance[i] < DistMin && Distance[i] >= 0){\r\n                DistMin = Distance[i];\r\n                Index = int32(i);\r\n            }\r\n        }\r\n        require(Index >= int32(0));\r\n    }\r\n\r\n\r\n    function GetMaxSeq(int32[] memory LabelMinIdx) internal view returns (int32 LabelMaxSeq){\r\n        uint32[] memory LabelAppearTime = new uint32[](m_k);\r\n        uint32 times = 0;\r\n        LabelMaxSeq = -1;\r\n        for(uint32 i = 0; i < m_k; ++i){\r\n            int32 label = m_TrainLabels[uint32(LabelMinIdx[i])];\r\n            if(++LabelAppearTime[uint32(label)]> times){\r\n                times = LabelAppearTime[uint32(label)];\r\n                LabelMaxSeq = label;\r\n            }\r\n        }\r\n        require(LabelMaxSeq>=0, \"Error of GetMaxSeq\");\r\n    }\r\n}\r\n",
  "sourcePath": "/home/zxhu/github/knn_for_solidity/contracts/KNN.sol",
  "compiler": {
    "name": "solc",
    "version": "0.7.0+commit.9e61f92b.Emscripten.clang"
  },
  "schemaVersion": "3.4.1",
  "updatedAt": "2021-06-30T03:36:58.752Z",
  "networkType": "ethereum",
  "devdoc": {
    "kind": "dev",
    "methods": {},
    "title": "委托投票",
    "version": 1
  },
  "userdoc": {
    "kind": "user",
    "methods": {},
    "version": 1
  }
}